:020000022000DC
:1070000000000420757302005D7302005F730200CC
:1070100061730200637302006573020000000000E8
:107020000000000000000000000000006773020084
:1070300069730200000000006B7302006D730200B0
:107040006D9602006F730200099B02006F730200CD
:107050006F7302006F7302008D9902006F7302005C
:107060006F7302006F73020039A502006F73020094
:107070006F7302006F7302006F7302006F73020080
:107080006F730200A58702006F7302006F73020026
:107090006F7302006F730200D1B102006F730200C0
:1070A0006F7302006F7302006F7302006F73020050
:1070B0006F7302006F730200000000000000000008
:1070C0006F7302006F7302006F7302006F73020030
:1070D0009DA502006F7302006F7302006F730200C0
:1070E0006F7302006F7302006F73020000000000F4
:1070F000000000006F730200000000006F730200C8
:10710000000000000000000000000000000000007F
:10711000000000000000000000000000000000006F
:10712000000000000000000000000000000000005F
:10713000000000000000000000000000000000004F
:10714000000000000000000000000000000000003F
:10715000000000000000000000000000000000002F
:10716000000000000000000000000000000000001F
:10717000000000000000000000000000000000000F
:1071800000000000000000000000000000000000FF
:1071900000000000000000000000000000000000EF
:1071A00000000000000000000000000000000000DF
:1071B00000000000000000000000000000000000CF
:1071C00000000000000000000000000000000000BF
:1071D00000000000000000000000000000000000AF
:1071E000000000000000000000000000000000009F
:1071F000000000000000000000000000000000008F
:10720000354936480A1A02D0072291438D4634493F
:1072100034480A1A06D00722914381F309880222D2
:1072200082F3148830483149314A00F044F831483B
:107230003149324A00F03FF831483249324A00F0D1
:107240003AF832483249334A00F035F83248334987
:10725000334A00F030F833483349344A00F02BF811
:1072600033483449344A00F026F83448344900227F
:1072700000F02CF833483449002200F027F8334856
:107280003349091A082902DB002202604160314AB1
:1072900090471F481F49884205D00268043003B454
:1072A000904703BCF7E700208646EC46002000210B
:1072B000294A9047FEE7884207D0521A05D0037842
:1072C00001300B700131013AF9D17047884202D088
:1072D00002700130FAE770470000042000E003204C
:1072E000000004200000042008C40200D818002078
:1072F000E0190020D0730200D0730200DCB6020057
:1073000008C40200D8180020D8180020A0B7020036
:10731000A0B70200A0B70200A0B70200A0B7020009
:10732000A0B70200A0B70200A0B7020008C4020084
:1073300010C50200E0190020E0190020E01900202B
:107340009C2200209C2200209C2200209C220020C5
:107350009C4200209D730200B1AA0200FEE7FEE7F6
:10736000FEE7FEE7FEE7FEE7FEE7FEE7FEE7FEE7F5
:1073700000F002B8FFF7FCBF0F484FF00701884349
:1073800085460E4880470E48016841F4700101604F
:10739000BFF34F8FBFF36F8FFFF732BF09480A4922
:1073A0000A4A884207D0521A05D0037801300B7080
:1073B0000131013AF9D1704700000420A190020088
:1073C00088ED00E0A0B70200D8180020D8180020EF
:1073D000F0B595B01D46164608460C4601F068FD0E
:1073E0001A9B0D93CDE9086500252B46082205A9B7
:1073F00020460A958DF82C500C9501F075FD079BE1
:107400000293069B03939DF814308DF8115003F0FE
:107410000302012A1DD1BDF81420059DC3F3C20348
:10742000C2F383168DF81030B20008230EA920464F
:1074300001F05AFDC5F3952508AB0093324602AB27
:107440000EA9284600F0AEFB204601F035FD15B030
:10745000F0BD022AF8D1BDF81650C3F3C203C5F33C
:1074600089158DF810300827082D2E4628BF0826CC
:107470003B4632460EA9204601F036FDAD1B08AB57
:1074800002AA31460EA8374400F0F0FB002DEBD1E4
:10749000DAE70000014B01221A707047211A002020
:1074A0007047000070B50E4D06460FCD88B06C4693
:1074B0000FC495E80F00002E84E80F00094A0A481F
:1074C0004FF0060308BF00226946009302F056F809
:1074D00008B100F09DFD054B1E7008B070BD00BFE7
:1074E000A0B7020095740200D8180020E01900200F
:1074F00007B5044B0093044A4023FFF769FF03B02C
:107500005DF804FB0D750200E119002038B50D4847
:107510000D4C0E4D002323700378EB5CD2B263B1A7
:10752000043002F0BBFF08B100F072FD084B1A787E
:1075300012B12378002BFBD038BD0C3002F03EFD99
:10754000F1E700BFD8180020211A0020E020002019
:10755000E019002008B50848084A0378D35C3BB11D
:10756000043002F00BFFBDE808400020FFF79ABF8F
:107570000C3002F0BBFCF6E7D8180020E020002019
:107580000120FFF78FBF000008B5FFF7F9FF04489F
:10759000042100F071FA034B01225A7108BD00BFAB
:1075A00090B70200EC180020037813F0040216D004
:1075B00003F00303012B03D0022B09D001207047F5
:1075C0000A6800880232C0F3831002440A60F5E7BB
:1075D0000B684288023303EB92130B60EEE7104610
:1075E000704700002DE9F04FDFF81CA187B00F466F
:1075F00000230446861C0DF1070015468DF8073060
:1076000000F062FFDAF804203A60DAF8083003F597
:1076100080739B1A0AF21C470AF583690AF2144820
:10762000B3421AD30020002D69D004F00F039B0150
:1076300043F0050363F30F00DAF80430DAB20332E3
:1076400033444AF822009DF80700CAF8043000F0DD
:107650005FFF012007B0BDE8F08F0121384601F03F
:1076600056F9484601F06BF9404601F068F9DAF83E
:1076700008000290C0B203300AEB800002A9FFF7B5
:1076800093FF029B30BBDAB20AEB8202D16803910E
:107690009A1C0133DBB20AEB83030292D3F80CB0DD
:1076A00001F00303012B22D0022B15D08346404664
:1076B00001F048F910B1029BCAF808305946384623
:1076C00001F025F9DAF80830DAF8042003F58073C0
:1076D0009B1AA5E7D8B2CEE7BDF80E30C3F38913E5
:1076E00003334FEA1B4B02EB93030293DFE7BDF832
:1076F0000C30C3F383134FEA1B4B1344F5E7A40587
:1077000044F0060098E700BFF41A0020064B074833
:1077100010B500221A7001F084FB044610B9044829
:1077200001F02CFC204610BDF41A0020FCB602002B
:10773000F4B7020030B50A4C71B10A4A0A49121B6B
:10774000D20800239A4201D1002030BD31F82350E5
:10775000854202D00133F5E7034654F83300F4E7DD
:1077600010B7020090B70200D8180020094B013969
:1077700003EBC000032909D8DFE801F00A02040680
:1077800004207047007970474079704700207047A7
:107790000220704710B7020070470000034BD3E986
:1077A0000130C31A58425841704700BFF41A0020F4
:1077B0002DE9F04186B0FFF7F1FF0546002840F0C3
:1077C000ED80774CC4F81804BFF34F8FA368029381
:1077D000DBB2033304EB830002A9FFF7E5FE029B53
:1077E00018B1D4F81824002A5AD0DAB2991C0133FF
:1077F00004EB8202DBB204EB8303D268DB68049300
:1078000002F00303022B0392029154D1BDF80E3013
:107810006448C3F38917502F3E4628BF502606F10F
:10782000080166F38F13C1F30901ADF80E3001F0C2
:1078300010FB0546002800F09C8001F039FB002376
:10784000082203A9284601F045FB0299CB43DBB28D
:107850000133C9B20331B6EB830F4FEA830204EB65
:10786000810125D95FFA82F80823A6EB080628468D
:1078700001F030FBF6B208F108034B4903F0FC03BA
:107880003246284601F026FB029B033703EB97079D
:107890000297D4F81834002B43D1D4F8106453E085
:1078A00062689A4294D8A260284606B0BDE8F0818A
:1078B00008233246E5E7012B5BD1BDF80C3039488F
:1078C000C3F38311062928BF062161F3891302310E
:1078D00001F00F018900ADF80C3001F0BAFA05464D
:1078E000002846D001F0E4FA0023082203A9284624
:1078F00001F0F0FA0026BDF80C20C2F38312B300A9
:10790000964203F10803C4D202994A1CC9B203315A
:10791000029204EB81010422284601F0DBFA0136D1
:10792000E9E7284601F0C8FAFFF738FF80F00100C8
:10793000C5B2B9E7F3685B7923B1336829461B68A0
:1079400030469847F3681E68002EF3D1284601F0B0
:10795000B3FA0DF107008DF8076000F0B5FDD4F81B
:1079600018340BB9029BA3609DF8070000F0D0FD0E
:10797000DAE7D4F8104454B90C4B0D480D49C01A3D
:10798000C008000440F0020000F05EF8CCE7236875
:1079900020469B689847E3681C68ECE7002583E76E
:1079A000F41A0020FCB60200001B002010B70200F1
:1079B00048B70200DDB702002DE9F34704460E4642
:1079C000924601A9012218469946FFF70BFE1C4F6B
:1079D00010B3019D4FF00008AA1CC84508EB020136
:1079E00025D11848002100F06FFF80F3100000043B
:1079F00040EA1440E4006B1C04F03804DBB2EDB242
:107A000044F0010407EB8303033544EA881444EA95
:107A10008624D86047F825403B781BB1FFF7C8FEA5
:107A20000028FBD1FFF7B8FE02B0BDE8F087C9B26D
:107A300007EB81015AF82830CB6008F10108CCE748
:107A4000F41A0020101F002000231A46FFF7B4BFCD
:107A500007B50123019201AAFFF7AEFF03B05DF85D
:107A600004FB07B5CDE9002302236A46FFF7A4FF14
:107A700003B05DF804FB000030B50F4CD4F81024BF
:107A800003460020114631B9D96808714AB9C4F8D3
:107A900010340A6030BDC9680D79854206D0096886
:107AA000F1E7D26814680C601360F3E701300A282C
:107AB000E8D14FF0FF30EDE7F41A002038B5084B5D
:107AC0000125D3F810441D7004B938BDE3685D7119
:107AD000236820465B689847E3681C68F4E700BFAA
:107AE000F41A002030B5C38885B004460D4633B182
:107AF000144A00921449154A284600F086FF217A5C
:107B000005291DD0637A4BB1A088FFF72FFE104BDB
:107B1000104953F82020284600F077FF227A0E4BB8
:107B2000A08853F8222003920021FFF703FE039A56
:107B30000A490346284605B0BDE8304000F065BF5D
:107B400005B030BD20B8020008B8020000B802003D
:107B50008CB8020025B80200B0B8020028B80200B4
:107B600007B503460846197A052911D05B7A2BB16F
:107B7000094A0A49019000F048FF0198084901901C
:107B800000F043FF019803B05DF804EB00F032BF52
:107B9000002AF8D0F2E700BF20B8020025B80200A2
:107BA0001DB802002DE9F04385B01F460C9D00234F
:107BB00095F80C902B7306460C469046294638469D
:107BC000FFF790FFB8F1060F09D8DFE808F00412BC
:107BD000181F283340003146284600F016FF0022C7
:107BE00029463846FFF7BCFF85F80C9005B0BDE884
:107BF000F08322683146284600F007FFEFE7D4E91A
:107C000000233146284600F000FFE8E7A368009310
:107C10003146D4E90023284600F0F7FEDFE7E368A9
:107C20000193A36800933146D4E90023284600F06D
:107C3000ECFED4E723690293E3680193A368009301
:107C40003146D4E90023284600F0DFFEC7E7636928
:107C5000039323690293E3680193A3680093314679
:107C6000D4E90023284600F0D0FEB8E708292DE922
:107C7000F74F80460E4617461C463DD800251B7B15
:107C80002573214610460193FFF72CFFDFF88CA0E7
:107C9000DFF88CB0AE4232D918F80520594620469C
:107CA00000F0B3FE0135082DF4D11B49DFF874A0B4
:107CB000DFF874B0204600F0A8FE4FF000094E45F2
:107CC00024D918F809507E2D1ED8284603F072FCDE
:107CD000002814BF2A462E225946204600F095FE61
:107CE00009F10109B9F1080FE9D10122214638460D
:107CF000FFF736FF019B237303B0BDE8F08F5146B9
:107D0000204600F082FECDE72E22E5E751462046D0
:107D100000F07BFEE4E700BF3CB8020038B8020088
:107D200032B802003AB802003EB80200C30710B5EC
:107D300007D4F023054A4008145C2340194311542A
:107D400010BD0901C9B20F23F4E700BFC01F002016
:107D500030B5094B1C78094B196800239C4202DCA2
:107D60000022104630BD11F83350854201EBC302AA
:107D7000F7D00133F2E700BFAC1F0020E01F002066
:107D800013B504460191FFF7E3FF38B143682BB107
:107D90000199204602B0BDE81040184702B010BD5E
:107DA000034B044819680022490800F055BA00BF87
:107DB000B01F0020F818002010B5C0B2FFF7C8FFB0
:107DC0000446007801F0D4FD63785A1E53425341B3
:107DD000834208D1044BD3E90023134303D1BDE808
:107DE0001040FFF7DDBF10BDB81F002037B54308B6
:107DF000374AD35CC2074CBF1B0903F00F0304468C
:107E00000D46042B25D8DFE803F003262F3C400065
:107E1000F9B10121FFF78AFF00230DF107008DF86A
:107E2000073000F051FB0120A4F12003C4F1200130
:107E3000284A20FA01F100FA03F30B43A040D2E9EB
:107E4000004120430B43C2E900039DF8070000F006
:107E50005FFB03B030BD002918BF0221204603B0EC
:107E6000BDE83040FFF762BF49B10321FFF75EFF75
:107E70000121204603B0BDE83040FFF781BF01215A
:107E8000ECE70029E5D10421E8E709B10321E5E7A2
:107E9000FFF74CFF29462046FFF772FF0DF1070060
:107EA0008DF8075000F010FB0120A4F12003C4F16D
:107EB0002001084A20FA01F100FA03F30B43A04025
:107EC000D2E9004124EA000021EA0303BBE700BF36
:107ED000C01F0020B81F00202DE9F041124E134FA3
:107EE00000243378A34208DC114BD3E90023134369
:107EF00018D0BDE8F041FFF753BF3D6805EBC4085B
:107F000015F8340001F034FD98F801305A1E534240
:107F10005341181A4142414115F83400FFF766FFFA
:107F20000134DEE7BDE8F081AC1F0020E01F002037
:107F3000B81F0020092AF7B505460C4616463ED95B
:107F400001F03EFCE8B11F4B1F481D601F4B204F46
:107F50001C70204B002120221E6003F05CFB1E4B96
:107F600000200021C3E90001013CE4B20326FF2CFC
:107F70000DD11A4A1A48002103B0BDE8F04000F0C4
:107F800059B901F0D9FB0028DDD003B0F0BD9DF850
:107F9000063015F834008DF8046005EBC40223F0B8
:107FA00007038DF8063001A993788DF805303A461D
:107FB00001F010FC013CE4B20028D8D0E5E707202E
:107FC000E3E700BFE01F0020C01F0020AC1F00201F
:107FD000B97D0200B01F0020B81F0020D97E02002A
:107FE000D0B8020070B5084D084E00242B789C4292
:107FF00001D3002070BD3368012113F8340001F073
:1080000069FC0134F2E700BFAC1F0020E01F002034
:108010001FB50021039001AA44F20100CDE901112E
:1080200000F004F805B05DF804FB000038B572B646
:10803000FFF744FDFFF7BCFB0028FBD1104B114CB0
:10804000114D1249E41AE408240444F00100FFF73A
:10805000FBFCD5F8F030DB0700D500BE0C4944F03E
:108060000200FFF7F1FCBFF34F8FEA68094B02F4FF
:10807000E0621343EB60BFF34F8F00BFFDE700BF2B
:1080800010B7020048B7020000ED00E0D4B80200CB
:10809000E0B802000400FA0510B5D0E90243D1E9C6
:1080A0000202A04272EB03032CBF0120002010BD8E
:1080B00008B50A4800F05FFB094AD2E90031C01850
:1080C000084BD3E9002341F10001904271EB030317
:1080D00003D210F1807041F1000108BD1819002091
:1080E000E81F00208820002037B505460C460A48C6
:1080F00001A900F074FB60B10570446001A9064855
:1081000000F097FB18B1054800F03AFB002003B0DF
:1081100030BD0420FBE700BF7420002018190020A8
:10812000294B73B51E7804461EB90026304602B0AE
:1081300070BD0028F9D0FFF7BBFFD4E902239042BD
:10814000994139D300230DF107008DF8073000F075
:10815000BBF923692BB94FF0FF324FF0FF33C4E96D
:1081600002239DF8070000F0D3F9D4E905309847C1
:1081700000250DF107008DF8075000F0A5F92369DF
:10818000C3B1D4E90212B2F1FF3F08BFB1F1FF3F22
:1081900005D05B1842F10002C4E9023235469DF871
:1081A000070000F0B5F9002DBFD00848214600F0C7
:1081B00004FFBBE71D46F2E7B3F1FF3F08BFB2F192
:1081C000FF3FB2D0F1E700BFF01F0020FCB8020073
:1081D00013B5114B114918680190082310488022EB
:1081E00000F0EAFA044698B90E4A0F4801A900F0D7
:1081F000B3F9044660B90C48012100F09FFA01234D
:108200000A4A0948194600F001FA094B01221A707E
:10821000204602B010BD00BFF8B80200F41F0020D5
:10822000742000201183020018190020FFFF7F0036
:10823000F01F002030B56AB103684FF0FF344FF0F3
:10824000FF355A614A1E5142C3E902455141196145
:10825000002030BD0720FCE7F7B5044600250DF1EE
:10826000070017460E468DF8075000F02DF9D4E9A7
:108270000223B3F1FF3F08BFB2F1FF3F07D1FFF781
:1082800017FF301841F10001C4E9020101259DF8F2
:10829000070000F03DF955B12369A76103B12661DC
:1082A0002146002003B0BDE8F040FFF71DBF28467F
:1082B00003B0F0BD37B5054600240DF107008DF879
:1082C000074000F001F9D5E90223B3F1FF3F08BFF1
:1082D000B2F1FF3F1FBF4FF0FF324FF0FF33C5E950
:1082E000022301249DF8070000F012F934B1294659
:1082F000012003B0BDE83040FFF7F6BE204603B0D2
:1083000030BD0000014800F036BA00BF1819002047
:108310002DE9F743064600F019FA40B1624AD2E966
:10832000003113F1807341F10001C2E900310021F5
:10833000304600F01AFA38B15C4C236823B120684B
:10834000FFF7EEFE002323600121304600F00DFA16
:1083500020B1FFF7ADFE564BC3E900015548534C21
:1083600001A900F076FA4FF0FF384FF0FF39A0B9BD
:10837000DFF844814D4D404600F035FE002800F006
:108380008580D0E90223B3F1FF3F08BFB2F1FF3F80
:1083900032D1404600F021FEEDE70378012B20D0DA
:1083A000022B08D1444D284600F017FE002877D054
:1083B000C0E90289F7E75BB94168D1E90223B3F16B
:1083C000FF3F08BFB2F1FF3F02D03B4800F0F5FD90
:1083D00001A9384800F068FA01A9364800F039FAD6
:1083E000C5E741682368994202D100232360EFE783
:1083F000314800F0FBFDEBE7296891B12968D1E92C
:10840000020182428B412FD22B68D3E90223B3F1C0
:10841000FF3F08BFB2F1FF3F03D02968404600F09C
:10842000CCFD404600F0D9FDD0E902490746FFF7F0
:108430003FFE201A69EB0109012879F1000318DBDE
:10844000B0F5350F13D3FFF75DFF1C4A02441C48FB
:108450004FF49603002100F0F9F890B92B6813B996
:10846000304600F0CBF82F6003B0BDE8F083224621
:10847000EDE71348002100F06EF93846FFF750FE93
:1084800001E00D28F9D000232B6074E7074B1B682F
:10849000002BE9D1304603B0BDE8F04300F0B2B89C
:1084A000084B01221A7093E7E81F0020902000205B
:1084B0008820002074200020FCB80200FFFFB400D8
:1084C00018190020F01F002070B5EFF3108672B667
:1084D0000C4A946801239CB993600B4B0B4DD3F865
:1084E000801029401160C3F88050D3F88410516087
:1084F0004FF0FF32C3F88420047006B962B670BD35
:108500000370FAE79420002000E100E0FC06FFBDC4
:10851000084B9A6810B55AB150B9EFF3108172B692
:10852000054A1C6814605C685460986001B962B6C2
:1085300010BD00BF9420002000E100E0435882B04D
:108540003BB10023435043580193019B012002B0EB
:1085500070471846FBE70000F8B5204B4479204EE1
:1085600043F824201F4A204B06EBC4049B1A2279AF
:10857000DB081B0432B143F002001C49FFF764FA28
:108580000820F8BD02680C88C2F8084590F904502C
:108590008A7804795201002DD2B219DB14494F199F
:1085A00087F8002301226D0904F01F0402FA04F485
:1085B00041F82540427906EBC201012446F8320019
:1085C0000C7143F003000B49FFF73EFA0020D8E797
:1085D000094904F00F040A55ECE700BFA820002069
:1085E000A020002010B7020058B7020008B902000E
:1085F00000E100E02AB9020014ED00E00368012266
:108600001A607047036801225A60704773B501F120
:108610005005AD000068ADB24FF480348C400026A8
:10862000C0F80843C0F84843465101F5A8714559C0
:10863000019522F07F42019D40F82120C0F844437B
:108640000BB1C0F8044302B070BD00002DE9F74F34
:108650000D4622F07F4402684FF4803705F1500642
:108660008F408046B60002EB8500C2F84873B6B270
:10867000C2F80873D2F8041599464FF0000BD0F8F1
:108680004035C0F8401542F806B05B1A9259009286
:1086900023F07F43012B009A4FEA850A0CD1264B29
:1086A0004FF4806043F001039847D8F8003043F856
:1086B00006B09B590193019BD8F80010D1F80465CE
:1086C000C1F84473A31B23F07F43012B1CD11A4B29
:1086D00005F5A875013443F0010341F825404FF436
:1086E00080609847D8F80030D3F804359E4209D10D
:1086F000D8F800300020C3F84473C3F8047303B003
:10870000BDE8F08F0D20FAE78A44C9F1FF13CAF8DB
:108710004045D1F80405221A013A22F07F4203F5C0
:108720007F439342EED3002AE2D10134CAF8404598
:10873000D1F804359842DAE740B902000368022212
:10874000C3F8442309B1C3F80423704700684FF409
:108750008271FFF7F3BE4FF4803303FA01F103682F
:10876000C3F84813C3F808137047503189000068F4
:1087700089B2FFF7E3BE0368D3F804057047000031
:1087800090F90430002B09DB5A09012103F01F0383
:1087900001FA03F34032024941F82230704700BF2A
:1087A00000E100E0024B034A1B681068184700BF55
:1087B000A8200020A020002010B561B1B2FBF3F486
:1087C00003FB1424A4B244B9C0E90014846082817C
:1087D000C381204610BD0E20FCE70920FAE737B51B
:1087E00050E8013F9DB2C48925448489A54228BF31
:1087F0002D1B0489A54202BFBFF32F8F002207E083
:10880000C5EA030540E80154002CE9D14FF001020C
:108810008DF803200193019A0A609DF8031001F07E
:10882000FF0321B1006810FA82F003B030BD184692
:10883000FBE70A884B889A4209D150E8012FC2EA27
:10884000024240E80123002BF7D1012070470020AD
:10885000704737B550E8023F1FFAA3F5C488A54218
:1088600002BFBFF32F8F00220DE0C4892544848905
:10887000A54228BF2D1BC3EA054540E80254002C41
:10888000E8D14FF001028DF803200193019A0A60AC
:108890009DF8031001F0FF0321B1006800EB1240C6
:1088A00003B030BD1846FBE70A884B889A4209D1CD
:1088B00050E8022FC2EA224240E80223002BF7D1FF
:1088C000012070470020704710B5034653E8000FA1
:1088D0000A4643E8002494F0000FF7D110BD10B50C
:1088E000034653E8002F42EA010043E8000494F0F5
:1088F000000FF6D110BD10B5034653E8000F00EA93
:10890000010243E8002494F0000FF6D110BD10B529
:10891000034653E8002F02EB010043E8000494F003
:10892000000FF6D110BD10B5034653E8002FA2EB9F
:10893000010043E8000494F0000FF6D110BD0121BE
:10894000FFF7CDBF0021FFF7D6BF10B590B1D0E93A
:10895000012301689B1ADBB20A60013BDBB2FF2BEB
:10896000026802D10020107110BD11684C1C146007
:108970000B70F2E70E20F7E737B5054600240DF13E
:1089800007008DF80740FFF79FFD2A686B681168A4
:1089900099420ED9481E106011F8013CEC68298AF2
:1089A00001FB0344AB6811791B1ADBB2994238BF53
:1089B00013719DF80700FFF7ABFD204603B030BDF3
:1089C00037B5054600230DF107000C468DF807303A
:1089D000FFF77AFD2A681368591C1160E968641A68
:1089E000298AB4FBF1F41C709DF80700FFF790FD95
:1089F00003B030BD826810B504462AB143690168EE
:108A0000006998470023A36010BD0EB403B5039915
:108A100021B104AB01AA019300F076F802B05DF831
:108A200004EB03B070470A2938B504460D4602D15D
:108A30000D21FFF7F8FFA3682268591CA160D554E7
:108A4000D4E901329A4204D32046BDE83840FFF70A
:108A5000D1BF38BD2DE9F84F9846DDE90A431546E8
:108A600082460F460A464FF00109AA420FD2C1457D
:108A700038BFC14613F0010B01D16CB900240126A7
:108A8000B8F1010F1BD908F1FF386E43F8E709F17F
:108A90000109B2FBF5F2E8E79B070ED5B8F1000F2C
:108AA0000CBF30262026A145E9D2013C3146504674
:108AB000FFF7B9FF002CF6D1E0E72026F3E7B7FB7C
:108AC000F6F39D42E1D9DFF83C80B7FBF6F3504660
:108AD00018F8031006FB1377FFF7A5FF3346AB42E8
:108AE000B6FBF5F6F1D2BBF1000F02D00CB1A145F7
:108AF00001D3BDE8F88F20215046013CFFF793FFDA
:108B0000F4E700BF46B902002DE9F74F05461746C6
:108B10008846002900F03E8118F8011B49B92B7BDB
:108B2000002B00F03781284603B0BDE8F04FFFF777
:108B300061BF252940F0B780002698F800302D2B22
:108B4000424608F1010823D0302B24D02B2B25D00E
:108B500000242A2B02F1010123D13B681A1D1B6856
:108B60003A601C440A4613782E2B26D101324FF06E
:108B7000000A104610F8011BA1F1300CBCF1090FDE
:108B80001DD80A2303FB0A13A3F1300A0246F0E7BB
:108B900046F00106D1E746F00206CEE746F00406AD
:108BA000CBE711F8013CA3F130000928DBD80A22F9
:108BB00002FB0434303C0A46CBE74FF0000A12F8BF
:108BC000011B01F0FB0068289046F8D0782909D8ED
:108BD0006F290CD8632962D022D8252963D058295F
:108BE00000F0888098F80030002B95D197E7703915
:108BF0000829F7D801A353F821F000BF6F8D0200B8
:108C0000E58B0200E58B0200058D0200E58B02007A
:108C1000E38C0200E58B0200E58B0200F58C02007C
:108C2000642901D06929DDD13A68D2F80090111D7C
:108C300089EAE9723960A2EBE9724FF0010B092A67
:108C400035DCD34538BFD3462CB1B9F1000F01DB79
:108C5000720700D5013CB30702D5BAF1000F03D06B
:108C6000F00701D44CBB0024B9F1000F2DDAC9F193
:108C700000092D212846FFF7D6FE06F00302022A3E
:108C800004D1BAF1000F01D11CBB0024CDE900468C
:108C900053460A2249462846FFF7DCFEA2E73B6816
:108CA0001A1D19783A602846FFF7BDFE9AE70A2395
:108CB0000BF1010BB2FBF3F2C1E7A345D4D22021A3
:108CC0002846013CFFF7AFFECCE77107D5D52B2135
:108CD000D0E7A345DAD230212846013CFFF7A3FEB6
:108CE000D2E73968CDE900460A1D3A6053460A22A8
:108CF0000968D0E739680A1D3A60CDE90046534655
:108D00001022F5E73B681A1D3A6016F00106D3F809
:108D1000009024D1B9F1000F03D0484602F0AEFC18
:108D20000646B4421DD809F1FF3919F8011F002980
:108D30003FF458AF2846FFF776FEF6E7284601369F
:108D4000FFF771FE19F806100029F7D1A642BFF40B
:108D500049AF20212846013CFFF765FEF6E70026D3
:108D6000F0E720212846013CFFF75DFED9E73B688C
:108D70001A1D3A60302128461C68FFF754FE7821FE
:108D80002846FFF750FE00220823CDE90032214695
:108D9000102280E703B0BDE8F08F00BF2DE9F84F47
:108DA000B0F806A04579D2F800B09DF828900AFBEB
:108DB00005F5043D88460BEB0301A94203F10404C9
:108DC00088BFA5EB030BB4FBFAF607460AFB164473
:108DD000C2F800B04EB9AAEB04055D4528BF5D4658
:108DE000BBF1000F04D1BDE8F88F3F68013EF1E709
:108DF000043408EB06003C442A46B9F1000F0DD0BC
:108E00002146ABEB050B02F0DDFBDA452E443F6853
:108E100055464FF0000428BF5D46E1E70146204675
:108E2000EFE7FFF792BDF8B546790146721E054699
:108E3000002393422D6803D30024A64202D8F8BD34
:108E40000133F6E70F682846FFF7BAFD01343946CB
:108E5000F3E72DE9F843068ACD1C0746FFF78CFDA2
:108E6000043E35440446B5FBF6F5F0B14FF480738B
:108E7000EDB28380C680013D076081464FF0000857
:108E8000A84512D23846FFF777FD064648B1637908
:108E90000133637108F10108C9F8000007608146D9
:108EA000EEE72046FFF7BFFF34462046BDE8F883D3
:108EB00001210430FFF72BBD10B501210446043019
:108EC000FFF731FDC0B220B92046BDE81040FFF7E2
:108ED000AABF10BD1FB503920022009203AAFFF79C
:108EE0005DFF05B05DF804FB1FB5039201220092FF
:108EF00003AAFFF753FF05B05DF804FB41DF70479D
:108F0000064B10B500241C70054B1C60BFF35F8F2F
:108F10000449054800F03BF8204610BDB42000206D
:108F2000B820002060B90200AC20002007B5002363
:108F30000DF107008DF80730FFF7C6FAF1EE103A91
:108F400023F09F03E1EE103ABFF35F8F0A4B4022FC
:108F5000C3F884219DF80700FFF7DAFA02F01EF942
:108F600020B103B05DF804EBFFF7C8BF20BF40BFDE
:108F700020BF03B05DF804FB00E100E0836800223D
:108F80005A60C3E904229A60DA601A6070470B687D
:108F90004A684360934208BF0023016008BF4360F2
:108FA0007047436843B10268916852680B4493422A
:108FB000436004BF00234360704770B544680646B1
:108FC0000D46206818B1B3682946984718B9236838
:108FD0002B60256070BD2468F3E74368186808B10A
:108FE00002681A60704743681868704743681868D9
:108FF00000B97047884203D102681A6001207047A7
:1090000003460068F4E7000010B50D49A1F594721D
:10901000914201D800200FE08C1AE30F03EBE40328
:109020005B1002EBC30452F83330834205D802D2FE
:1090300004F10802ECE7606810BD2146E8E700BFD4
:109040006CBE020008B5FFF7DFFF024B002808BF27
:10905000184608BD2FBD02004FF08053D3F83001F1
:10906000A0F1080358425841704700004FF0805368
:10907000D3F83021082A06D1D3F83431052B02D891
:10908000024AD05C70470020704700BF72BE0200E9
:10909000024AD2F80034002BFBD0704700E00140B8
:1090A00010B5FFF7D9FF40B14FF080430022C3F85D
:1090B0000C21C3F81021C3F83825FFF7CDFF002895
:1090C00046D04FF08052654BD2F80414C3F82015F7
:1090D000D2F80814C3F82415D2F80C14C3F82815D4
:1090E000D2F81014C3F82C15D2F81414C3F83015A4
:1090F000D2F81814C3F83415D2F81C14C3F840156C
:10910000D2F82014C3F84415D2F82414C3F8481533
:10911000D2F82814C3F84C15D2F82C14C3F8501503
:10912000D2F83014C3F85415D2F83414C3F86015CB
:10913000D2F83814C3F86415D2F83C14C3F8681593
:10914000D2F84014C3F86C15D2F84424C3F8702543
:10915000FFF78CFF18B1424B424AC3F88C26FFF749
:1091600085FF18B1404BFB22C3F81825FFF77EFF9F
:1091700070B14FF080414FF08053D1F8E42ED3F816
:10918000583222F00F0203F00F031343C1F8E43EFC
:10919000FFF76CFF20B1354B4FF40072C3F8402647
:1091A000FFF75AFF48B14FF08043D3F80024D207AD
:1091B00044BF6FF00102C3F800242D4AD2F8883072
:1091C00043F47003C2F88830BFF34F8FBFF36F8F43
:1091D0004FF08053D3F83021082A0ED1D3F8343120
:1091E000052B02D8234AD35C3BB14FF01023D3F8B0
:1091F00008224FF08043C3F858254FF01023D3F8CE
:109200000022002A03DBD3F80432002B22DA1A49A9
:1092100001234FF01020C1F804351224FFF738FF66
:10922000C0F80042FFF734FFC0F80442FFF730FFF8
:109230000023C1F80435FFF72BFFBFF34F8F0C4914
:109240000E4BCA6802F4E0621343CB60BFF34F8F4A
:1092500000BFFDE70A4B0B4A1A6010BD00C000407A
:10926000005000404881030000F0004000900240A0
:1092700000ED00E06CBE020000E001400400FA05D1
:10928000201900200090D003074B1B5C1F2B8ABFC6
:10929000064A4FF0A04203F01F03D2F80405D8405D
:1092A000C04300F00100704778BE02000003005088
:1092B000074B1B5C1F2B86BF064903F01F034FF0B3
:1092C000A041012202FA03F3C1F80C35704700BF38
:1092D00078BE020000030050074B1B5C1F2B86BFAB
:1092E000064903F01F034FF0A041012202FA03F3E5
:1092F000C1F80835704700BF78BE02000003005077
:1093000008B50020FFF7E8FF0120FFF7E5FF022086
:10931000FFF7E2FFBDE808400320FFF7DDBF08B517
:109320000020FFF7C5FF0120FFF7C2FF0220FFF773
:10933000BFFFBDE808400320FFF7BABF0A4B185C27
:109340001F288ABF094B4FF0A04300F01F00D3F83D
:1093500004250121814021EA02000A40C3F80805E2
:10936000C3F80C25704700BF78BE02000003005010
:109370000B2809D00C2809D0182809D019280CBFAF
:1093800003204FF0FF3070470020704701207047E6
:1093900002207047C20710B504460CD54FF0A04319
:1093A0000322C3F83427C3F83827C3F83C27C3F88F
:1093B0004027FFF7A5FFA3070AD54FF0A0430C22D3
:1093C000C3F82C27C3F83027C3F86027C3F86427F5
:1093D00010BD000038B5074C051E04F1080318BF86
:1093E0001C4623682BB11A6822605B6828469847A0
:1093F000F7E738BDC420002020B9054B01225A7080
:10940000FFF7E8BF012802D1014A9070F8E77047E2
:10941000BC20002020B9034B01225A70FFF7DABFAD
:10942000704700BFBC20002038B50E4C2378B3B97C
:109430000D486360A3602361E36000F0E7F8054630
:1094400001F0ACFE08B900F0EDF801232370074BE2
:10945000D3F800340BB10123A370284638BD85250D
:10946000F5E700BFBC200020F99302000000014096
:1094700037B50D4C00230DF107008DF80730FFF7CD
:1094800023F8E368013BE360E36833B9074BD3F8A3
:10949000005415B900F0D8F8A5709DF80700FFF743
:1094A00037F803B030BD00BFBC20002000000140F1
:1094B000012813B50CD0032820D038B9134B012252
:1094C000C3F88020BFF34F8FBFF36F8F02B010BD82
:1094D0000F4C00230DF107008DF80730FEF7F4FF65
:1094E00023780BB9FFF7A0FFE3689DF8070001336D
:1094F000E3600123A370FFF70BF8E7E700F092F8B1
:1095000002B0BDE81040FFF7B3BF00BF00E100E0CC
:10951000BC2000201FB503788DF80030436801930C
:1095200083688DF80830C368054A0393054B684685
:1095300053F8213052F82110984705B05DF804FB2C
:10954000D0200020D82000201FB503788DF80030EF
:109550004368019383688DF80830C368054A039314
:10956000054B684653F8213052F82110984705B052
:109570005DF804FBD0200020D8200020F0B5194B66
:1095800090F800C0DFF86CE043F82C20164B16462C
:109590000A6943F82C204B7F0EF80C300C46074626
:1095A0000FCC89B06D460FC594E80F0085E80F0019
:1095B0003B78CDF810C01EF803304BB1002E0B4A9B
:1095C000694608BF3246381D00F0FCFD09B0F0BD09
:1095D000002E074A694608BF324607F10C0000F02A
:1095E000B5FBF3E7D8200020D0200020159502001D
:1095F00049950200E020002000F18040002382B065
:10960000036003680193019B02B07047044A137919
:1096100023B901211060918018467047852070475A
:10962000E4200020074B1A68D20704D4C02283F834
:10963000002301221A604FF080430122C3F818254D
:10964000704700BF00E100E04FF0804208B5022300
:10965000C2F808334FF48270FFF7CEFF0123D360C6
:10966000D2F81834DB03FBD408BD00004FF0804172
:1096700010B5D1F8003163B14FF48070FFF7BCFF33
:109680000D4B58790122C1F8082310B95A711B6893
:1096900098474FF08042D2F8043163B14FF48270A2
:1096A000FFF7AAFF0223C2F80833034BBDE81040BE
:1096B0001B680120184710BDE420002000F1804005
:1096C00000F5C040002382B0036003680193019B52
:1096D00002B0704703681F2B83BF03F01F030360B2
:1096E00001484FF0A04070470003005007B50190BB
:1096F00001A8FFF7EFFF019B00EB8300D0F80037D4
:1097000023F44033C0F80037D0F8003743EA014172
:10971000C0F8001703B05DF804FB0000054B4FF0E4
:10972000FF32072843F8202084BFC01880F8582053
:10973000704700BFEC20002038B51D4991F86A3011
:10974000A3BB4FF6FF70FF245A09012A0CBF024643
:109750004FF0FF3203F01F05EA40D20748BFCA1896
:1097600003F1010348BF82F83040302BECD10024D4
:10977000E0B20134FFF7D2FF0C2CF9D10D4B0022DF
:109780004A669A800C4BC02083F80603402018607C
:109790004FF4BE70FFF792FF084B4FF00040C3F844
:1097A0000403012381F86A30104638BD0820FCE725
:1097B000EC2000205021002000E100E0006000408B
:1097C000034B93F86A00003818BF0120704700BFB0
:1097D000EC200020F7B53D4F3B18044693F930309C
:1097E000002B71DA8B78C3F34003002B0BBF0825E5
:1097F00000250C200820854202D1042003B0F0BDD2
:1098000057F82560013647D138196EB247F8252040
:1098100080F8306013B97B1983F858408B785A0769
:109820001AD4D8073AD501A80194FFF753FF019B3A
:1098300000EB8300D0F8003723F00203C0F80037B4
:109840002348E20804F0070C012303FA0CF310F894
:1098500002C043EA0C03835488780B7810F00200AE
:1098600028D0AD0005F1804505F5C0452402D5F8A6
:10987000102522F44F3222F44072C5F810251B0443
:10988000D5F8102504F47C5403F440331C431443EE
:10989000C5F810450020B1E70135ACE701A84A78CA
:1098A0000194FFF717FF019B03F5E073920040F866
:1098B0002320C5E7083E47FA86F797F8604044EA58
:1098C000831387F8603099E7082097E7EC200020A1
:1098D0005021002073B5244D2E18044696F93020EF
:1098E000072A1DDD083A45FA82F595F860309B0994
:1098F000032B10D1019001A8FFF7ECFE019BD0F8DB
:109900001015D94001F001010231204602B0BDE836
:109910007040FFF7EBBE012B0CBF02210321F4E7DF
:10992000D3B2072B1DD8930003F1804303F5C04346
:10993000D3F8100540F00100C3F8100502F1400013
:1099400040B2800080B2FFF7B9FE51B196F93030D5
:1099500055F823302BB1012303FA02F2034BC3F86D
:10996000042302B070BD00BFEC2000200060004066
:1099700007B5019001A8FFF7ADFE019BD0F81005D7
:10998000D84000F0010003B05DF804FB2DE9FF476B
:109990000024CDE90244584D4FF48072012102F1B8
:1099A000804303F5C04390B21B68012B06D1D5F864
:1099B00004330B4202D0FFF781FE0C430432B2F5B0
:1099C000907F4FEA4101EAD14B4BD3F87C31012B18
:1099D00011D14FF4BE70FFF771FE4FF0A04344F079
:1099E0000044D3F820250292C3F82025D3F820287C
:1099F0000392C3F82028E3B2D3B1404F00250126DB
:109A0000344210D0AB0003F1804303F5C043D3F8D8
:109A10001005D3F8101557F8253023B1C1F30141D3
:109A2000C0F3052098470135082D4FEA4606E7D1D7
:109A3000002C59DA314D324C324E4FF000080127DC
:109A400016F9013B5A1C3CD0C3F3C20110316944E2
:109A50005FFA83F911F8081C03F03F0203F00703D3
:109A600007FA03F319422CD001A80192FFF732FE46
:109A7000019B03F5E07350F82330C3F3014ABAF1B8
:109A8000020F0CBF032102211046FFF72FFE01A891
:109A90000192FFF71FFE019B07FA03F3C0F8203580
:109AA000AB1893F9303055F8233053B14FEA991180
:109AB000032904D0BAF1020F19D1012901D11046AE
:109AC000984708F10108B8F1040FB9D14FF0A0434D
:109AD000D3F820250292C3F82025D4F8203503932B
:109AE000C4F820351343A7D104B0BDE8F087BAF11C
:109AF000030FE6D10229E1E700600040EC200020DE
:109B0000000300504C210020014B1B68184700BF88
:109B1000582100200E4B984237B50C4602D0002049
:109B200003B030BD00230DF107008DF80730FEF7BC
:109B3000CBFC084B1D7915B901221C601A719DF8E8
:109B40000700FEF7E5FC002DE9D01120E8E700BF93
:109B50000020004058210020034B984201BF034BD6
:109B600000221A601A71704700200040582100201E
:109B70000023435082B043580193019B02B07047C9
:109B80000A4610B54FF48E71FFF7F2FF136A916821
:109B9000C95C136A01331362C0F81C1510BD8B69D0
:109BA0000A4610B54FF4847123B9FFF7E1FFD0F8EE
:109BB000183510BDFFF7DCFF536AD168D0F81805DF
:109BC000C854536A01335362F3E700001FB5012301
:109BD0008DF80030044BCDE90110D3E9001268463E
:109BE000904705B05DF804FB6021002030B54D4D75
:109BF000D5F804339A0585B051D5D5F82431002B1A
:109C00004DD04FF492712846FFF7B2FF4FF4017325
:109C1000C5F80833444B93F829200AB901226A6039
:109C2000404902228DF80020D1F88024C1F8802418
:109C300003929A690292DA6801920022C3E906222D
:109C40006846D3E9001290473648D0F81C315BB122
:109C5000354A5169136A99424DD992F82830002B40
:109C600049D11146FFF78CFF2E48D0F84431002B24
:109C700056D04FF4A271FFF77BFF2B4B93F82920AE
:109C80000AB1012202609A69002A49D0586AD9684B
:109C900000229A6105B0BDE83040FFF797BFD5F8C4
:109CA00004335B07D0D5D5F80831002BCCD01E4C3F
:109CB0001C482146FFF773FF636AA2699A42C3D129
:109CC000E369E1684BB1A3612369E3600023606A43
:109CD000E3616362FFF77AFFB6E794F829300BB9C6
:109CE00001236B600F4B4FF40172C3F8082300236C
:109CF000606AA361EEE70B484FF48E71FFF738FFFF
:109D00005369002BB0D051690291002391688DF8FE
:109D10000030019153616846D2E900139847A3E7E8
:109D200005B030BD00200040602100201F2886BF04
:109D300000F01F00044B4FF0A04300F5E07002223A
:109D400043F82020704700BF000300502DE9F8437E
:109D5000604D90F804802C2303FB0853064693F8CB
:109D60002A300C469146002B40F0AF805A490068DB
:109D7000FFF7D0FE0746002840F0A9802268531C58
:109D800010D01F2A87BF554902F01F0313464FF01A
:109D9000A0410120984003F5E073C1F808050320B5
:109DA00041F823006168481C0DD01F298BBF01F0CA
:109DB0001F030B4649484FF0A04003F5E0734FF0F6
:109DC000000C40F823C03068A369C0F8243594F82B
:109DD00014C0637DBCF1010F4CEA0303C0F86C357D
:109DE000C0F81415C0F80C252BD1A368591C0DD050
:109DF0001F2B8BBF03F01F021A4638494FF0A041BA
:109E000002F5E0724FF0000C41F822C0E1684A1CF4
:109E100013D01F2987BF314A01F01F0C8C464FF029
:109E2000A0424FF0010E0EFA0CFE0CF5E07CC2F8D9
:109E300008E54FF0030E42F82CE0C0F80815C0F812
:109E400010352C2202FB08F2AB18C3F804902369EA
:109E5000AB50B9F1000F20D04FF48E71247FFFF783
:109E600087FE4FF4A2713068FFF782FE32681C4B08
:109E7000C2F80433130B42F307326101002AC9B25E
:109E80001EDB1848841884F800130121520903F0DE
:109E90001F0301FA03F340F8223033680422C3F8A9
:109EA00000252C2303FB08530022C3E9062283F874
:109EB00029205A61012283F82A203846BDE8F88318
:109EC000094A03F00F03D154E7E70827F5E7112704
:109ED000F3E700BF60210020ED9B0200000300506B
:109EE0008000020000E100E014ED00E02DE9F04107
:109EF00003680579284C0022C3F800252C2202FBB8
:109F0000054201465268A2B1244AC3F808231A0B3D
:109F100043F30733002B0CDB02F01F005B09012227
:109F2000824020331E4840F82320BFF34F8FBFF3F9
:109F30006F8F0B68D3F80C05D3F81485D3F8086538
:109F4000D3F810754FF0FF329042C3F81425C3F8D0
:109F50000C25C3F80825C3F8102501D0FFF7E6FE4D
:109F6000B8F1FF3F02D04046FFF7E0FE7A1C02D076
:109F70003846FFF7DBFE731C02D03046FFF7D6FEF3
:109F80000868FFF7E9FD2C2303FB0544002384F850
:109F90002A306360BDE8F081602100208402020065
:109FA00000E100E00279044B2C2101FB02335869E7
:109FB000003818BF01207047602100202DE9F84FBC
:109FC000064690F8048089469246FFF7EBFF044668
:109FD00000283CD1204F2C2508FB057B4FF48E71C7
:109FE000CBF814A0CBF80890CBF820008BF8280011
:109FF0003068FFF7BDFD3068012383605946FFF7E5
:10A00000BFFDDBF804305D461BBB3068DBF8144055
:10A010002B6A9C4211D83368D3F81C21002AFBD04C
:10A020000122DA6000202C2303FB087700237B61E8
:10A03000BDE8F88F95F828303BB9D0F81C31002BDB
:10A04000F8D05946FFF79CFDE2E70F20EBE711201F
:10A05000EEE72046ECE700BF6021002000234350DC
:10A0600082B043580193019B02B070471FB5012392
:10A070008DF80030044BCDE90110D3E90012684699
:10A08000904705B05DF804FB8C2100207FB5434A62
:10A09000D2F82461002E60D010464FF49271FFF781
:10A0A000DDFF02238DF80030D2F88034C2F880340E
:10A0B0000393D2F83C350293394BDA6801920022BF
:10A0C000C3E906226846D3E9001290473348D0F826
:10A0D000443173B14FF4A271FFF7C0FF304B9A695E
:10A0E0003AB10022C3E90622D968D0F83C05FFF74F
:10A0F000BDFF2A48D0F82031ABB14FF49071FFF783
:10A10000ADFF0123C360264B5A6962B1D0F84C15EC
:10A110000291002299688DF8002001915A616846E9
:10A12000D3E9001290471D48D0F858319BB14FF445
:10A13000AC71FFF793FF1A4B5A6962B1D0F84C1516
:10A140000291002299688DF8002001915A616846B9
:10A15000D3E90012904704B070BDD2F81031002B43
:10A16000B4D04FF488711046FFF778FF0C4BD2F84B
:10A170003C0599698842A9D1DC69D96864B1D2F8F3
:10A18000005225F02005C2F800521A699C61DA607D
:10A19000DE61FFF76BFF99E79C61FAE70020004062
:10A1A0008C2100201F2886BF00F01F00044B4FF0B9
:10A1B000A04300F5E070022243F82020704700BF62
:10A1C000000300502DE9F843664E90F804802423E4
:10A1D00003FB0863044693F820300D469146002B9C
:10A1E00040F0BC8060490068FFF794FC07460028F7
:10A1F00040F0B68029684B1C10D01F2987BF5B4AEE
:10A2000001F01F030B464FF0A0420120984003F5D8
:10A21000E073C2F80805032042F823006A68501C66
:10A220000DD01F2A8BBF02F01F0313464F484FF07B
:10A23000A04003F5E0734FF0000C40F823C0206805
:10A24000AB69C0F8243595F814C06B7DBCF1010FE3
:10A250004CEA0303C0F86C35C0F80C15C0F814259F
:10A260002BD1AB68591C0DD01F2B8BBF03F01F02E5
:10A270001A463E494FF0A04102F5E0724FF0000C43
:10A2800041F822C0E9684A1C13D01F2987BF374A0A
:10A2900001F01F0C8C464FF0A0424FF0010E0EFA59
:10A2A0000CFE0CF5E07CC2F808E54FF0030E42F816
:10A2B0002CE0C0F80815C0F81035242202FB08F283
:10A2C000B318C3F804902B69B350B9F1000F2FD025
:10A2D0004FF488712A7FFFF7C1FE20684FF4907118
:10A2E000FFF7BCFE20684FF49271FFF7B7FE2068BD
:10A2F0004FF4A271FFF7B2FE4FF4AC712068FFF784
:10A30000ADFE23681A49C3F80413190B43F307334E
:10A310005201002BD2B21CDB1648C51885F8002369
:10A3200001225B0901F01F0102FA01F140F823103C
:10A3300023680822C3F80025242303FB08660023B2
:10A34000C6E906337361012386F820303846BDE83C
:10A35000F883094B01F00F015A54E9E70827F5E7A4
:10A360001127F3E78C2100208DA00200000300508C
:10A370001003420000E100E014ED00E02DE9F0419F
:10A380003D4D06790468242303FB065302465B68AF
:10A39000ABB13A4BC4F8083344F30733002B4FEA10
:10A3A00014310CDB01F01F005B09012181402033D7
:10A3B000334840F82310BFF34F8FBFF36F8FD4F8AB
:10A3C000003223F02003C4F80032242303FB065399
:10A3D0009B6933B14FF4A2712046FFF73FFE012382
:10A3E00063604FF4AC712046FFF738FE0123E36051
:10A3F000242303FB0653D4F858110029FBD0996994
:10A4000019B1D4F844110029F5D00023C4F800355F
:10A410001368D3F80C05D3F81485D3F80815D3F8CE
:10A4200010754FF0FF329042C3F80C25C3F8142585
:10A43000C3F80825C3F8102501D0FFF7B3FEB8F123
:10A44000FF3F02D04046FFF7ADFE7A1C02D03846EF
:10A45000FFF7A8FE4B1C02D00846FFF7A3FE2046DC
:10A46000FFF77AFB242303FB0655002385F82030F1
:10A470006B60BDE8F08100BF8C210020100342001A
:10A4800000E100E00279044B242101FB023358690A
:10A49000003818BF012070478C21002001F0604374
:10A4A000B3F1005F2DE9F0470646884692463BD15E
:10A4B00090F80490FFF7E6FF0446002836D11D4FC0
:10A4C0003068242505FB09754FF49071C5F814A078
:10A4D000C5F80880FFF7C2FD4FF4AC713068FFF794
:10A4E000BDFD33686A69A968C3F84415C3F84825F7
:10A4F00001229A606A68DAB9D3F82021D3F85801AA
:10A500001AB90028F8D00F2007E00028FBD101225B
:10A51000DA60D3F85821002AFBD0242303FB097703
:10A5200000237B61BDE8F0871020FBE71120F9E7ED
:10A530002046F7E78C2100202DE9F341104C114F04
:10A54000114E00254FF48038236883B1D7F80433C7
:10A5500008FA05F21A420AD0002323602368019307
:10A5600004F5C040019B80B2D6E90031984701351F
:10A57000042D04F10404E7D102B0BDE8F08100BF6E
:10A5800040A1004000A00040B02100200023435023
:10A5900082B043580193019B02B070472DE9F0410E
:10A5A000224E234FDFF88C8000244FF48035D7F8FB
:10A5B0000433A6F580412B4289B20CD0336853B1E5
:10A5C000C7F848533846C7F80853FFF7DFFFD8F8F5
:10A5D0000030E0B298470134042C4FEA450506F1FB
:10A5E0000406E4D11248D0F80433DA070AD5D0F8CB
:10A5F00000313BB14FF48071FFF7C8FF0D4B20468F
:10A600001B6898470A48D0F804339B070CD5D0F84C
:10A6100004314BB14FF48271FFF7B8FF054BBDE831
:10A62000F0411B6805201847BDE8F0814041024019
:10A6300000400240BC2100200220FEF77FBE000047
:10A640002DE9F04780460D46FEF792FE03280446AA
:10A6500010D8012D10D0022D30D05DB91A48FDF769
:10A6600029FE1A4B04EB440213449D78184B1B5DE2
:10A67000AB4219D0BDE8F087144E00EB4003F2184E
:10A68000F55C5378470053B1DFF84C900E484A46CA
:10A690004FF48041FDF7E0FD08B989F800802744B8
:10A6A0003E440B4BB2781A55002DE3D0094B1B6882
:10A6B000002BDFD02846BDE8F047184700EB4004E8
:10A6C000024804446578EFE748190020C2210020C1
:10A6D000DD210020D8210020C021002000780221A7
:10A6E000FFF7AEBF08B5094B1B7853B10020FEF74A
:10A6F000F3FD0120FEF7F0FDBDE808400320FEF762
:10A70000EBBDBDE80840FEF7FBBD00BFC121002046
:10A71000F8B57A4C237805461BB100232370FFF768
:10A72000E1FF172D00F28780DFE805F00C171742D4
:10A730005364757F878C878C949999999999C3C82C
:10A74000D0D8E3E3FFF7CEFF6D48FDF7B3FD6D4BC7
:10A75000002204461A702046F8BD0020FEF794FD42
:10A76000F0B10020FEF7B8FD022D0CBF4FF4E164FC
:10A770004FF47A64634B1D7000254FF400464FF48C
:10A780007A7029464FF4FA620023E4FB060100F0D8
:10A790005BFE2A460146BDE8F8405948FDF75CBD1E
:10A7A000FEF786FD022D0CBFC8244FF4C874E1E704
:10A7B0000020FEF769FD40B10020FEF78DFD4FF44B
:10A7C0004874504B03221A70D6E7FEF771FDC82477
:10A7D000F7E70020FEF758FD38B10020FEF77CFDBA
:10A7E0004FF47A64474B0422EDE7FEF761FD4FF426
:10A7F000C874F7E70020FEF747FD48B10020FEF7D8
:10A800006BFD404B05221A7040F6CD410022C2E795
:10A81000FEF74EFDF5E70020FEF790FD394B0622CE
:10A820001A70002240F26661B5E70020FEF740FD95
:10A83000344B07221A7000248DE701202070FEF7A8
:10A840007DFDEEE701202070FEF778FD00224FF439
:10A850000051A0E7FEF763FD2A4B0C22EAE72A48E5
:10A860002A4EFDF727FDD5F1110504461CD0D8B9B5
:10A87000012D13D0C820454321464FF400474FF423
:10A880007A704FF4FA620023C5FB070100F0DCFD8B
:10A89000224601461C48FDF7DFFC04460220FEF775
:10A8A00007FD0123337056E70220FEF715FD002354
:10A8B000F8E7FFF717FF134B1222BBE7FFF712FF72
:10A8C0000020FEF7F5FC0F4B1322B3E7FFF70AFF5A
:10A8D0000120FEF7EDFC0B4B1422ABE7FFF702FF64
:10A8E0000020FEF7E5FC0120FEF7E2FC054B1522F7
:10A8F000A0E7FEF714FD034B1D709CE7D421002058
:10A9000068190020DC21002028190020C121002026
:10A91000044B1B68DB0703D5034B1878FFF7F8BE21
:10A92000704700BFD0210020DC210020044B1B68B1
:10A9300013F0010301D0FFF7EBBE1846704700BFCC
:10A94000D021002038B51C4B18601C4B10F00204BD
:10A95000054619601AD01A4B1A480E221A700F2297
:10A96000DA7010229A7111225A72042140F23332A5
:10A97000FDF7E0FA044648B9FDF734FB044628B970
:10A980000146114A1148FDF755FC0446EB0711D565
:10A990000120FEF7FFFC6CB921460D4A0D48FDF77A
:10A9A00049FC044630B9BDE838400B4A0B48012148
:10A9B000FDF740BC204638BDD0210020D821002022
:10A9C000C2210020A8BE0200DDA60200CCBE02000B
:10A9D00011A90200D0BE020039A60200C8BE0200C2
:10A9E00072DF704773DF70472DE9F041244D254E2B
:10A9F000254CD5E900201F232188B380234B002755
:10AA000012F57A721F6001F10101214B40F1000043
:10AA100089B29F70DF7059710F0A2180010C997102
:10AA2000110E1972110C5972110AD8719972DA72D9
:10AA300018491F7133688B42C5E9002008BF03F134
:10AA40001F01154A1548316000F056F908B1FDF7AD
:10AA5000DFFA0C4912480022FFF7C2FF08B1FDF7E8
:10AA6000D7FA104B104822881049C01AC0080004B9
:10AA70002B6840F00300BDE8F041FCF7F2BF00BFD7
:10AA80009022002088190020882200208C2200209B
:10AA9000C01900203C2200208C190020E421002055
:10AAA0009819002010B7020048B70200D4BE020077
:10AAB00007B54FF480410020FCF728FE08B1FDF7F0
:10AAC000A7FAFCF761FDFDF783FB08B1FDF7A0FADB
:10AAD0003F4A40480121FDF7ADFB08B1FDF798FA68
:10AAE00000210120FFF72EFF08B1FDF791FAFEF7D4
:10AAF00007FA08B1FDF78CFA00F012FB08B1FDF778
:10AB000087FA002301A90120019300F095FB08B109
:10AB1000FDF77EFA01A800F029FC08B1FDF778FAEC
:10AB20002D4D2E4C4AF254132B802D4BAB603C2202
:10AB30000C2300212046AB8000F06DFD0423E37060
:10AB4000284B656218220021184600F064FD05229A
:10AB500002704FF47A528260234A204652F8041B56
:10AB6000224C00F0C9F8206008B1FDF751FA1D4AE7
:10AB70001D491F48FFF734FF206008B1FDF748FA70
:10AB80001C4B1D481D49C01AC008000440F00300BA
:10AB9000FCF75AFF164B01211878FFF723FF08B185
:10ABA000FDF736FA0220FFF7C1FE08B1FDF730FAD3
:10ABB000134800224FF42031FDF74EFB08B1FDF79A
:10ABC00027FAFCF7F5FD0028FBD1FEF7AFF9F8E70F
:10ABD000E9A9020038BF02007C220020E421002005
:10ABE000C0190020242200208819002020220020E3
:10ABF0009819002010B7020048B7020026BF0200D3
:10AC0000A01900206DDF704779DF70477DDF704746
:10AC100064DF70472DE9F04F85B000250E9CBDF82C
:10AC20003CB0B4F800A00191074690461E46A946E4
:10AC30003A884A450DDC45B12388013BA3EB0A0362
:10AC40009BB2FF2B3AD806F80A30002005B0BDE8C9
:10AC5000F08F7A6852F82900039000220DF10B0161
:10AC600003A8FFF7D5FF0028F0D19DF80B2042453F
:10AC700021D12288002D14BF0020022002EB080100
:10AC8000014459451ADC3DB9013292B2019B228040
:10AC9000B35422880132228022880DF10B01324404
:10ACA00003A8FFF7B5FF0028D0D121889DF80B201D
:10ACB0000A442280012509F10109B9E70C20C5E702
:10ACC0002DE9F341089FBDF824801546CDE90078B1
:10ACD000022204461E46FFF79DFF50B9334610225C
:10ACE00029462046CDE9087802B0BDE8F041FFF7DB
:10ACF00091BF02B0BDE8F0812DE9F04F0023178825
:10AD0000138090F82D3085B006460D4614465BB38F
:10AD1000082F01D80C2028E102A8FFF773FF0028B4
:10AD200040F023812388DDF809100822EA542388A3
:10AD300001339BB21B222380EA54238801339BB248
:10AD4000EA182380E950BDF80D30938023889DF8E0
:10AD5000082006339BB212F0FE0218BF01222380A6
:10AD6000EA54238801332380B378FBB1238804336A
:10AD7000BB42CFD802A8FFF747FF002840F0F5807C
:10AD800023880322EA54238801339BB219222380AB
:10AD9000EA542388BDF8082001339BB2E9182380C8
:10ADA000EA54120A4A70238802332380F2789AB157
:10ADB0002388D91CB942ADD80221E9542388013334
:10ADC0009BB201212380E95423880B449BB223804A
:10ADD000EA5423880B4423807268AAB12388D91CC3
:10ADE000B94297D8022192F90020E954238801330F
:10ADF0009BB20A212380E954238801339BB223802C
:10AE0000EA542388013323803389002B40F0A1804A
:10AE1000338A5BB1CDE900472B460722032106F1B7
:10AE20001000FFF74DFF002840F09F80338B5BB18F
:10AE3000CDE900472B461522142106F11800FFF733
:10AE40003FFF002840F09180326A002A40F0908055
:10AE5000D6F82480B8F1000F30D0B8F8043021883B
:10AE6000981C8A1C0244BA423FF654AFFE283FF6B3
:10AE700051AF03336B54238801339BB2FF222380ED
:10AE8000EA54238801339BB22380B8F80020EA54A7
:10AE9000E918120A4A702088023080B22080B8F87F
:10AEA00004205AB1D8F8081000296BD0284400F0CB
:10AEB00089FB2388B8F804201344238096F82C30AB
:10AEC000002B40F09880307800284ED03388012B3A
:10AED00058D0228802F1020CBC453FF61BAF012876
:10AEE00005D17378023313449F42FFF413AF023F3E
:10AEF000BF1ABFB202A905EB0C00ADF80870FFF74E
:10AF000085FE90BB3178BDF80830022900F0B98089
:10AF100072789A4202D39F4280F0B180012940F0BA
:10AF2000B280974293B2C0F0AE80ADF808300821ED
:10AF3000BDF80830FE2B3FF6EDAE22880133AB544E
:10AF40002288013292B22280A9542288134423809D
:10AF50000BE0CDE900472B460622022106F108004E
:10AF6000FFF7AEFE00283FF453AF05B0BDE8F08F09
:10AF7000B4F800C00CF10603BB423FF6CBAE11881B
:10AF8000052901D80720F0E76FF4486E01EB0E03A6
:10AF90009BB24FF27D3E7345F4D95388052BF1D90E
:10AFA0006FF44860181880B27045EBD94FF6FF7007
:10AFB000814201D09942E5D8052305F80C30238859
:10AFC00001339BB212212380E954238801339BB2C1
:10AFD00023801188E954E818090A41702388023354
:10AFE0009BB223805288EA54E918120A4A702388D7
:10AFF000023323802CE7B36A002BC3D04FF0000844
:10B000004FF00C0A4FF0160BB16A5FFA88F20AFB98
:10B0100002F201EB0209B9F80430981CFE283FF651
:10B0200079AE208803332B54238801339BB22380CD
:10B0300005F803B0238801339BB223808A5AEA546F
:10B04000E918120A4A702088023080B22080B9F8CC
:10B0500004205AB1D9F80810002993D0284400F0F0
:10B06000B1FA2388B9F804201344238096F82C20E1
:10B0700008F101085FFA88F39A42C5D823E709214D
:10B0800056E79F42FBD2ADF8087050E710DF7047DB
:10B0900013B5044609496846FDF779FF019808B9D8
:10B0A00002B010BDD0E900212046904718B1684693
:10B0B000FDF777FFF2E71120F2E700BF48BF02007B
:10B0C00013B5044607496846FDF761FF019B0BB9BC
:10B0D00002B010BD2046D3E9002190476846FDF735
:10B0E00060FFF3E760BF02000B4991F816335A097D
:10B0F000EC231341DB0706D5084B9A683AB94FF4A5
:10B1000080030B60704742F20200FCF781BF1A68AF
:10B1100042F480021A60704700E100E094200020B1
:10B12000F7B5194F3C7864BB184E012520463570A1
:10B13000FFF7AEFF112821D02046FFF7C1FF144BC7
:10B140008DF80340186801900DF10300FDF7BCF97C
:10B15000104901A8FFF79AFF0446B0FA80F04009B1
:10B1600038709DF80300FDF7D3F93CB90A4B3470F1
:10B170001C70FFF7B9FF2846FFF7A2FF204603B077
:10B18000F0BD0824FAE700BF992200209822002091
:10B1900044BF02002D8002009A220020014B187843
:10B1A000704700BF9922002007B508496846FDF79F
:10B1B000EEFE019B13B903B05DF804FBD3E9002058
:10B1C00090476846FDF7EDFEF3E700BF54BF02006D
:10B1D000FFF7EABF60DF704769DF704761DF7047E4
:10B1E00030B5134B1B7891B0FBB1124D34240DF1E7
:10B1F000020103A8ADF80240FFF7F0FF70B929463D
:10B2000001A8FDF7C4FE029B002BF0D003A8D3E9F0
:10B210000021904701A8FDF7C4FEF4E7052804D0FB
:10B2200011B0BDE83040FCF7F3BE11B030BD00BF37
:10B230009B220020A4C1020030B50C4685B0002935
:10B2400000F082800023CDE90133404A03930123BB
:10B250000A608DF804008DF8063001A9062320202D
:10B26000ADF80830FFF7B8FF60B1FDF7EBFE384BE3
:10B270003849024638481B1ADB081B0443F001001A
:10B28000FCF7E6FB00232268039301A94020CDE9E7
:10B290000133FFF7A1FF60B1FDF7D4FE2C4B2F491E
:10B2A00002462D481B1ADB081B0443F00100FCF783
:10B2B000CFFB00232268039301A90120CDE90133CC
:10B2C000FFF78AFF60B1FDF7BDFE214B244902461E
:10B2D00021481B1ADB081B0443F00100FCF7B8FBF4
:10B2E0000023CDE902332268F82301A9A1200193AC
:10B2F000FFF772FF60B1FDF7A5FE154B1949024635
:10B3000015481B1ADB081B0443F00100FCF7A0FBE7
:10B3100000252268039501A9A020CDE90155FFF77A
:10B320005BFF034668B1FDF78DFE094B0E490246EF
:10B3300009481B1ADB081B0443F00100FCF788FBDB
:10B340002B46184605B030BD0E23FAE7D81800206A
:10B3500070B702006CBF020010B70200B2BF02005B
:10B36000FEBF02004AC002009BC0020073B5054642
:10B370000668FFF72FFF2B68B34204461DD91A4811
:10B380001A4B1B491B1ADB081B0443F002000190F7
:10B39000FCF75AFB2B68174901983246FCF761FB12
:10B3A0004FF080532A68D3F80C31134901989B025F
:10B3B00003F100539A1AFCF74BFB2CB90F4B0122F7
:10B3C0001A70204602B070BD2046FDF73BFE074BC9
:10B3D0000B49024604481B1ADB081B0443F001001A
:10B3E000FCF736FBEDE700BF10B7020070B70200B4
:10B3F000EEC002001DC102004EC102009B220020CF
:10B4000078C102004BDF70471FB50E4C01A8FFF753
:10B41000F9FF70B9214602A8FDF7B9FD039B002B87
:10B42000F4D00198D3E90021904702A8FDF7B9FDB7
:10B43000F4E7052804D004B0BDE81040FCF7E8BDEF
:10B4400004B010BDBCC1020053EA020C61D02DE96A
:10B45000F04BB3FA83F51E0007BFB2FA82F502FA89
:10B4600005F403FA05F41646C5F120051EBF22FABD
:10B4700005F73C43203556EA044C4FEA144418BF04
:10B480000134A3464FF00009C846904271EB030C0B
:10B4900039D3094207BFB0FA80F700FA07F6B1FACC
:10B4A00081F701FA07F6C7F120071EBF20FA07FC53
:10B4B00046EA0C062037B6FBFBFC7F1B103F07F06B
:10B4C0001F04C4F120060CFA04F42CFA06F644BF5B
:10B4D00034460026202FA4BF2646002454EA060C3A
:10B4E00008BF012418EB040849EB0609A4FB027C01
:10B4F000C01B06FB02CC04FB03CC71EB0C01904299
:10B5000071EB030CC5D20B46024649464046BDE8E6
:10B51000F08BB2FBF3F200007F2805D8034A044BFE
:10B52000105C5B5C1840704700207047D4C102007B
:10B5300054C20200A0F16103192B98BF2038704754
:10B54000A0F14103192B98BF203070477F299ABF83
:10B55000017001206FF02E00704700BF5AB10A78C9
:10B560007F2A0AD800B102600021501AC3E90011F5
:10B5700018BF01207047104670476FF02E007047CB
:10B58000A0F16103192B98BF20387047A0F1410347
:10B59000192B98BF203070477F2805D8034A044BE9
:10B5A000105C5B5C1840704700207047D4C10200FB
:10B5B00054C20200024B5B689B6809211B68184754
:10B5C000CC190020844640EA010313F0030F18D180
:10B5D0008446202A0BD32DE9F007B1E8F807A0E84C
:10B5E000F807A2F12002202AF7D2BDE8F007042ACA
:10B5F00007D351F8043B40F8043BA2F10402042AAB
:10B60000F7D2002A05D011F8013B00F8013B013ABE
:10B61000F9D1604670478446002A2DD010F0030F00
:10B6200004D000F8011B013A26D0F7E7C9B241EA7D
:10B63000012141EA0141202A12D3A2F120022DE981
:10B64000F0030B460C460D460E460F4688468946CB
:10B65000A0E8FA03203AFBD2BDE8F00320320BD079
:10B66000042A05D340F8041B043A05D0042AF9D271
:10B6700000F8011B013AFBD16046704700F101015F
:10B6800010F0030F11D010F8012B002A23D010F076
:10B69000030F0AD010F8012B002A1CD010F0030F62
:10B6A00003D010F8012B002A15D02DE970004FF0BF
:10B6B00001324FF0803350F8044BA4EB020525EA29
:10B6C00004051D4000D1F6E7A0F1040070BC10F89D
:0CB6D000012B002AFBD1A0EB0100704709
:08B6DC001594020000000000BB
:08B6E400B19402000000000017
:10B6EC00E1B102000000000009B4020000000000FB
:10B6FC00241A0020EC1A0020F41A00202C1A002026
:04B70C001800000021
:10B7100082BE02000000000088BE0200000000009F
:10B720008FBE020000000000A4BE02000000000066
:10B730009EBE02000000000093BE02000000000058
:10B7400098BE020000000000EEB7020000000303F4
:10B75000C4B8020000000000EDB8020000000000C4
:10B760007CBE0200000000003CBF0200000003039A
:10B7700095C1020000000303B0C1020000000303F2
:10B7800056B90200000000006CB902000000000081
:10B79000C0B7020000000000CCB70200EC18002087
:10B7A000FFFFFFFFFFFFFFFFFFFFFFFFFFFFFFFFA9
:10B7B00000000000000000000000D60106010000AB
:10B7C000F174020055750200A17402007561727473
:10B7D0005F6C6F675F6261636B656E64004261639B
:10B7E0006B656E647320666C757368656400617068
:10B7F00070000000141F00207F000000941F002034
:10B800001B5B313B33316D0025734C6F67732064D4
:10B81000726F70706564202825642925730D0A00F5
:10B820001B5B306D002573003C25733E2025733A69
:10B830002000202530327800202020007C00256365
:10B84000001B5B313B33306D001B5B313B33326D92
:10B85000001B5B313B33336D001B5B313B33346D7D
:10B86000001B5B313B33356D001B5B313B33366D69
:10B87000001B5B313B33376D007761726E696E6719
:10B8800000696E666F0064656275670020B802002B
:10B8900041B8020000B8020049B8020051B80200E5
:10B8A00059B8020061B8020069B8020071B802001C
:10B8B00000000000DAB8020079B8020081B8020086
:10B8C00086B802006170705F627574746F6E0000FC
:10B8D000F8180020466174616C206572726F720006
:10B8E00053797374656D207265736574006170704F
:10B8F0005F74696D657200000100060000000000C1
:10B90000E41F00209980020052544320696E737432
:10B91000616E636520616C726561647920696E692E
:10B920007469616C697A65642E005254433A2069E7
:10B930006E697469616C697A65642E0000000000AC
:10B940000338FDD870473031323334353637383923
:10B950004142434445467077725F6D676D740000E5
:10B96000E4B60200E4B6020004000000736F7274D3
:10B970006C697374004E52465F53554343455353AD
:10B98000004E52465F4552524F525F5356435F48F6
:10B99000414E444C45525F4D495353494E47004E2A
:10B9A00052465F4552524F525F534F46544445569C
:10B9B0004943455F4E4F545F454E41424C4544001C
:10B9C0004E52465F4552524F525F494E5445524E79
:10B9D000414C004E52465F4552524F525F4E4F5FB0
:10B9E0004D454D004E52465F4552524F525F4E4FAD
:10B9F000545F464F554E44004E52465F4552524F9B
:10BA0000525F4E4F545F535550504F52544544006F
:10BA10004E52465F4552524F525F494E56414C4935
:10BA2000445F504152414D004E52465F4552524F85
:10BA3000525F494E56414C49445F5354415445006E
:10BA40004E52465F4552524F525F494E56414C4905
:10BA5000445F4C454E475448004E52465F45525253
:10BA60004F525F494E56414C49445F464C41475303
:10BA7000004E52465F4552524F525F494E56414C1E
:10BA800049445F44415441004E52465F4552524F33
:10BA9000525F444154415F53495A45004E52465FFC
:10BAA0004552524F525F54494D454F5554004E52E6
:10BAB000465F4552524F525F4E554C4C004E5246D7
:10BAC0005F4552524F525F464F5242494444454EA1
:10BAD000004E52465F4552524F525F494E56414CBE
:10BAE00049445F41444452004E52465F4552524FD2
:10BAF000525F42555359004E52465F4552524F5283
:10BB00005F434F4E4E5F434F554E54004E52465F7B
:10BB10004552524F525F5245534F55524345530081
:10BB20004E52465F4552524F525F4D4F44554C4521
:10BB30005F4E4F545F494E495449414C495A454420
:10BB4000004E52465F4552524F525F4D5554455834
:10BB50005F494E49545F4641494C4544004E524668
:10BB60005F4552524F525F4D555445585F4C4F43BD
:10BB70004B5F4641494C4544004E52465F45525248
:10BB80004F525F4D555445585F554E4C4F434B5F98
:10BB90004641494C4544004E52465F4552524F5231
:10BBA0005F4D555445585F434F4E445F494E49548D
:10BBB0005F4641494C4544004E52465F4552524F04
:10BBC000525F4D4F44554C455F414C52454144599D
:10BBD0005F494E495449414C495A4544004E5246EA
:10BBE0005F4552524F525F53544F524147455F4653
:10BBF000554C4C004E52465F4552524F525F415099
:10BC0000495F4E4F545F494D504C454D454E54454C
:10BC100044004E52465F4552524F525F4645415492
:10BC20005552455F4E4F545F454E41424C4544008E
:10BC30004E52465F4552524F525F494F5F50454EFC
:10BC400044494E47004E52465F4552524F525F4460
:10BC500052565F5457495F4552525F4F56455252B4
:10BC6000554E004E52465F4552524F525F44525617
:10BC70005F5457495F4552525F414E41434B004E1E
:10BC800052465F4552524F525F4452565F54574995
:10BC90005F4552525F444E41434B004E52465F4512
:10BCA00052524F525F424C455F495053505F525879
:10BCB0005F504B545F5452554E4341544544004EDF
:10BCC00052465F4552524F525F424C455F49505376
:10BCD000505F4348414E4E454C5F414C52454144B4
:10BCE000595F455849535453004E52465F4552528E
:10BCF0004F525F424C455F495053505F4C494E4B49
:10BD00005F444953434F4E4E4543544544004E52C1
:10BD1000465F4552524F525F424C455F4950535027
:10BD20005F504545525F52454A454354454400558E
:10BD30006E6B6E6F776E206572726F7220636F64C8
:10BD4000650000000000000075B90200010000005D
:10BD500081B90200020000009FB902000300000048
:10BD6000C0B9020004000000D3B9020005000000C1
:10BD7000E4B9020006000000F8B902000700000064
:10BD800010BA02000800000028BA020009000000F2
:10BD900040BA02000A00000059BA02000B0000007D
:10BDA00071BA02000C00000088BA02000D00000009
:10BDB0009CBA02000E000000AEBA02000F000000A4
:10BDC000BDBA020010000000D1BA0200110000004C
:10BDD000E8BA020012000000F7BA020013000000E7
:10BDE0000CBB02008000000020BB020081000000AC
:10BDF00041BB0200820000005DBB02008300000026
:10BE000079BB02008400000097BB0200850000009F
:10BE1000B8BB020086000000DDBB020090000000FD
:10BE2000F4BB02009100000012BC0200920000006E
:10BE300030BC02000082000045BC0200018200000C
:10BE400063BC0200028200007FBC0200008400008C
:10BE50009BBC020001840000BFBC02000284000001
:10BE6000E9BC0200038400000EBD020000000000D7
:10BE700001010100000000000D0E0F10636C6F63E4
:10BE80006B00434C4F434B004750494F54450050C3
:10BE900052530055415254005541525445005449A3
:10BEA0004D455200525443000B00030041A60200CE
:10BEB0000C00030041A602001800030041A6020086
:10BEC0001900030041A6020028190020481900208B
:10BED000681900204164766572746973696E672021
:10BEE0007061796C6F616420757064617465642E33
:10BEF000204E6577205061636B657420436F756ECB
:10BF00007420697320307825782C20616E64206E4F
:10BF100065772074696D652076616C75652069733D
:10BF200020307825780050726F63657373207374C6
:10BF300061727465642E0000A01900206E72665F45
:10BF40007364680001000007E4B60200E4B6020072
:10BF500008000000ECB60200FCB602000800000079
:10BF6000E4B60200ECB602000800000073645F62F1
:10BF70006C655F6366675F736574282920726574FA
:10BF800075726E6564202573207768656E20617414
:10BF900074656D7074696E6720746F2073657420AA
:10BFA000424C455F434F4E4E5F4346475F474150CB
:10BFB0002E0073645F626C655F6366675F736574B0
:10BFC00028292072657475726E6564202573207748
:10BFD00068656E20617474656D7074696E67207435
:10BFE0006F2073657420424C455F4741505F434664
:10BFF000475F524F4C455F434F554E542E0073647C
:10C000005F626C655F6366675F7365742829207281
:10C01000657475726E6564202573207768656E207F
:10C02000617474656D7074696E6720746F207365D8
:10C030007420424C455F434F4D4D4F4E5F43464742
:10C040005F56535F555549442E0073645F626C65BB
:10C050005F6366675F736574282920726574757203
:10C060006E6564202573207768656E206174746541
:10C070006D7074696E6720746F2073657420424C14
:10C08000455F47415454535F4346475F41545452C0
:10C090005F5441425F53495A452E0073645F626C9E
:10C0A000655F6366675F73657428292072657475C0
:10C0B000726E6564202573207768656E20617474E4
:10C0C000656D7074696E6720746F207365742042AB
:10C0D0004C455F47415454535F4346475F53455275
:10C0E000564943455F4348414E4745442E00496EFB
:10C0F00073756666696369656E742052414D20618F
:10C100006C6C6F636174656420666F72207468651F
:10C1100020536F66744465766963652E00436861D9
:10C120006E6765207468652052414D20737461729A
:10C1300074206C6F636174696F6E2066726F6D201E
:10C140003078257820746F20307825782E004D6166
:10C1500078696D756D2052414D2073697A6520664E
:10C160006F72206170706C69636174696F6E2069B1
:10C170007320307825782E0073645F626C655F658C
:10C180006E61626C6528292072657475726E6564D3
:10C190002025732E006E72665F7364685F626C6543
:10C1A00000000000E4B60200E4B60200080000004F
:10C1B0006E72665F7364685F736F6300DCB6020063
:10C1C000E4B602000800000043000000504F53494D
:10C1D000580000002020202020202020206828282F
:10C1E000282820202020202020202020202020203F
:10C1F00020202020481010101010101010101010C7
:10C2000010101010848484848484848484841010A6
:10C2100010101010108181818181810101010101C3
:10C2200001010101010101010101010101010110EF
:10C230001010101010828282828282020202020298
:10C2400002020202020202020202020202020210C0
:10C250001010102000070320041702010857104097
:10C2600080000000C8C10200CCC20200E0C302008E
:10C2700053756E004D6F6E00547565005765640010
:10C280005468750046726900536174000000000034
:10C290004A616E00466562004D6172004170720035
:10C2A0004D6179004A756E004A756C0041756700F2
:10C2B000536570004F6374004E6F760044656300F1
:10C2C00000000000414D00504D00000004C4020079
:10C2D00000C4020000C4020000C4020000C4020046
:10C2E00000C4020000C4020000C4020000C4020036
:10C2F00000C40200FFFFFFFFFFFFFFFFFFFFFFFF84
:10C30000FFFF000040C3020070C202007CC30200B5
:10C3100090C20200C4C2020024C30200D4C30200BF
:10C3200030C30200256D2F25642F25790000000001
:10C3300025612025622025652025542025590000EF
:10C3400053756E646179004D6F6E64617900547548
:10C350006573646179005765646E65736461790023
:10C36000546875727364617900467269646179001A
:10C370005361747572646179000000004A616E75E2
:10C38000617279004665627275617279004D617201
:10C39000636800417072696C004D6179004A756E86
:10C3A00065004A756C790041756775737400536553
:10C3B0007074656D626572004F63746F62657200C0
:10C3C0004E6F76656D62657200446563656D62658A
:10C3D0007200000025483A254D3A25530000000020
:10C3E00019B5020035B5020041B5020099B5020049
:10C3F00081B502008DB502004DB502005DB50200A9
:08C40000000000002E00000006
:10C408000000000000200040000000000020004064
:10C418000000000000000000FF0000000000000015
:10C428000000000000000000FFFFFFFFFFFFFFFF0C
:10C4380000000000000000000000000000000000F4
:10C4480000100140110004000090D003000000001B
:10C458000000000000000000FFFFFFFFFFFFFFFFDC
:10C4680000000000000000000000000000000000C4
:10C478000000000000000000FFFFFFFFFFFFFFFFBC
:10C4880000000000000000000000000000000000A4
:10C498000000000000000000FFFFFFFFFFFFFFFF9C
:10C4A8000000000000000000000000000000000084
:10C4B8003C2200201F0000000000000000000000D7
:10C4C800FF00000000000000000000000000000065
:10C4D800FFFFFFFFFFFFFFFF00000000000000005C
:10C4E80000000000000000000C0100000001000036
:10C4F8000000000164C2020064C2020064C20200BB
:08C5080064C2020064C20200DB
:0400000320007375F1
:00000001FF
